:030000000208BE35
:0C08BE00787FE4F6D8FD75815C02090526
:100ADE00001F1C1F1E1F1E1F1F1E1F1E1F001F1C60
:0A0AEE001F1E1F1E1F1F1E1F1E1FCC
:100A3F000B46313939392D31322D333100095332CB
:100A4F00333A35393A353500093C30303A30303A9F
:0F0A5F00303000015200015100014500015C00E0
:10062F00782F7C007D007BFF7A0A79DE7E007F0DBC
:10063F0012055CE54724D0FFE434FFFE7C007D64A7
:10064F001205C8AA06AB07E54624D0FFE434FFFE27
:10065F007C037DE81205C8EF2BFBEE3AFAE5482440
:10066F00D0FFE434FFFE7C007D0A1205C8EF2BFF9C
:10067F00EE3AFEE54924D0FDEC34FFCD2FFFED3EE1
:10068F00AB07FAE54B24D0FFE434FFFE7D0A1205D9
:10069F00C8E54C24D0FDEC34FFCD2FF52CED3EF505
:1006AF002BAF4E7E007D0A1205C8EF254FFFEC3EA3
:1006BF00CF24F1F52EEF34FDF52D0C7D90AF03AE69
:1006CF00021205DAED4C60147C007D64AF03AE02BC
:1006DF001205DAED4C600AEB5403700575311D807D
:1006EF000375311C742F252CF8E6FFD3E52E9FE5FB
:1006FF002D9400400E052CE52C7002052B752D0056
:10070F00752E01D3E52C940CE52B9400400B0BBBFD
:10071F0000010A752B00752C01D3EB940FEA942777
:10072F004003E4FAFB7C037DE8AF03AE021205DA67
:10073F00EF2430F5467C007D64AF03AE021205DA7C
:10074F007C007D0A1205DAED2430F5477C007D0A26
:10075F00AF03AE021205DA7C007D0A1205DAED2432
:10076F0030F548AE02AF037C007D0A1205DAED24A6
:10077F0030F549AE2BAF2C7C007D0A1205DAEF2441
:10078F0030F54BAE2BAF2C7C007D0A1205DAED2431
:10079F0030F54CAE2DAF2E7C007D0A1205DAEF241A
:1007AF0030F54EAE2DAF2E7C007D0A1205DAED240A
:0307BF0030F54FC3
:0107C2002214
:1007C300E55324D0FFE434FFFE7C007D0A1205C804
:1007D300E55424D0FDEC34FFCD2FF526ED3EF52571
:1007E300E55624D0FFE434FFFE7D0A1205C8E55721
:1007F30024D0FDEC34FFCD2FF528ED3EF527AF597E
:100803007E007D0A1205C8EF255AFFEC3ECF24F186
:10081300F52AEF34FDF529D3E52A943BE529940025
:10082300400DE4F529F52A0528E52870020527D3AC
:10083300E528943BE5279400400DE4F527F52805CA
:1008430026E52670020525D3E5269417E5259400B1
:100853004008E4F525F52612062FAE25AF267C00C9
:100863007D0A1205DAEF2430F553AE25AF267C005E
:100873007D0A1205DAED2430F554AE27AF287C004B
:100883007D0A1205DAEF2430F556AE27AF287C0037
:100893007D0A1205DAED2430F557AE29AF2A7C0024
:1008A3007D0A1205DAEF2430F559AE29AF2A7C0010
:0A08B3007D0A1205DAED2430F55A33
:0108BD002218
:0609D3008B1F8A20892120
:1009D900E4FFFEAB22AA23A9248F828E8312059BF2
:1009E900FDAB1FAA20A9218F828E8312059B6D6002
:0F09F90002C3220FBF00010EEF64084E70D5D36A
:010A080022CB
:03000B0002094A9D
:10094A00C0E0C0F0C083C082C0D075D000C000C073
:10095A0001C002C003C004C005C006C007055CE5AB
:10096A005CB40F06755C001207C3D007D006D00529
:10097A00D004D003D002D001D000D0D0D082D0830E
:05098A00D0F0D0E032C6
:100A8D00E4F55C758901758AB0758C3CD28CD2A960
:0B0A9D00D2A8D2AAD2AFD288D28A22FF
:10000E00780C7C007D007BFF7A0A79EB7E007F0DF9
:10001E0012055CE4F51BF51C751D03751EE875B025
:10002E00FF120A8D12098F120B22E552602B7522D8
:10003E000075230075243C7B007A0079531209D396
:10004E005017E51E151EAE1D7002151D4E6004B232
:10005E00A080EF751D03751EE8C2A07B007A0079A3
:10006E0046E4FD7F03120A09E5457007FB7A007925
:10007E0053800BE545B4010D7B007A00793C7D0180
:10008E007F04120A09E5522430FBE4FDFF120AF840
:10009E00E5512430FBE4FD7F0F120AF8E5452430CC
:1000AE00FB7D01E4FF120AF820901E3090FDE5451D
:1000BE00600B0551E551D39403400E80090551E5BF
:1000CE0051D394064003E4F5513091063092030269
:1000DE00045E20910B3091FD751B00751C01800C88
:1000EE002092093092FD74FFF51BF51CE551640159
:1000FE00706AE5457033E55924D075F00AA4FFE522
:10010E005A24D02F251CF50BD3943B4003E4F50B5A
:10011E00E50B75F00A842430F559E50B75F00A8469
:10012E00E5F02430F55A02045EE54224D075F00A5B
:10013E00A4FFE54324D02F251CF50BD3943B40039D
:10014E00E4F50BE50B75F00A842430F542E50B75EA
:10015E00F00A84E5F02430F54302045EE5516402B2
:10016E00706AE5457033E55624D075F00AA4FFE5B4
:10017E005724D02F251CF50AD3943B4003E4F50AEF
:10018E00E50A75F00A842430F556E50A75F00A84FE
:10019E00E5F02430F55702045EE53F24D075F00AF1
:1001AE00A4FFE54024D02F251CF50AD3943B400331
:1001BE00E4F50AE50A75F00A842430F53FE50A7580
:1001CE00F00A84E5F02430F54002045EE551640344
:1001DE00706AE5457033E55324D075F00AA4FFE547
:1001EE005424D02F251CF509D394184003E4F509A7
:1001FE00E50975F00A842430F553E50975F00A8493
:10020E00E5F02430F55402045EE53C24D075F00A86
:10021E00A4FFE53D24D02F251CF509D394184003E7
:10022E00E4F509E50975F00A842430F53CE5097515
:10023E00F00A84E5F02430F53D02045EE5516404D5
:10024E006003020314E54724D0FFE434FFFE7C0074
:10025E007D641205C8AA06AB07E54624D0FFE43438
:10026E00FFFE7C037DE81205C8EF2BFBEE3AFAE5A4
:10027E004824D0FFE434FFFE7C007D0A1205C8EF4F
:10028E002BFFEE3AFEE54924D0FDEC34FFCD2FF5E1
:10029E001AED3EF519E54B24D075F00AA4FFE54C96
:1002AE0024D02FF508E54E24D075F00AA4FFE54FB3
:1002BE0024D02F251CFBAE19AF1A0C7D901205DA37
:1002CE00ED4C6015AE19AF1A7C007D641205DAEDA7
:1002DE004C600BE51A54037005750E1D8003750EE8
:1002EE001C740C2508F8E6FFEBD39F4002E4FBEBF1
:1002FE0075F00A842430F54EEB75F00A84E5F0248F
:10030E0030F54F02045EE551640560030203A0E57B
:10031E004724D0FFE434FFFE7C007D641205C8AA9A
:10032E0006AB07E54624D0FFE434FFFE7C037DE8F0
:10033E001205C8EF2BFBEE3AFAE54824D0FFE43461
:10034E00FFFE7C007D0A1205C8EF2BFFEE3AFEE59C
:10035E004924D0FDEC34FFCD2FF51AED3EF519E50D
:10036E004B24D075F00AA4FFE54C24D02F251CF5A4
:10037E0008D3940C4003E4F508E50875F00A8424CC
:10038E0030F54BE50875F00A84E5F02430F54C02A3
:10039E00045EE5516406600302045EE54724D0FF67
:1003AE00E434FFFE7C007D641205C8AA06AB07E5A7
:1003BE004624D0FFE434FFFE7C037DE81205C8EF2F
:1003CE002BFBEE3AFAE54824D0FFE434FFFE7C0026
:1003DE007D0A1205C8EF2BFFEE3AFEE54924D0FD4B
:1003EE00EC34FFCD2FFFED3ECF251CF51AEF351B5C
:1003FE00F519D3E51A940FE51994274005E4F5197C
:10040E00F51AAE19AF1A7C037DE81205DAEF243027
:10041E00F546AE19AF1A7C007D641205DA7C007DBC
:10042E000A1205DAED2430F547AE19AF1A7C007DBD
:10043E000A1205DA7C007D0A1205DAED2430F54841
:10044E00AE19AF1A7C007D0A1205DAED2430F5499B
:10045E002093123093FDE4F551E5456005E4F54532
:10046E0080037545013094030200383094FDE55247
:0E047E006006E4F552020038755201020038A3
:100B12007580FFC2A4D2A5C2A600D2A6E580332268
:100AA8008F23120B1240FB7F057E00120A6FC2A42F
:0B0AB800C2A5D2A685238000C2A622A2
:0C0B22007F01120AA87F057E00020A6F06
:100AC3008F23120B1240FB7F057E00120A6FD2A404
:0B0AD300C2A5D2A685238000C2A62287
:100AF8008F1F8B20ED7006E51F24808004E51F24DE
:0A0B0800C0FF120AA8AF20020AC3C2
:100A09008F1F8B208A218922ED7006E51F248080A3
:100A190004E51F24C0FF120AA8AB20AA21A92212AB
:100A29000582FF6010120AC374012522F522E435FC
:060A390021F52180E422FA
:10098F007F38120AA87F057E00120A6F7F38120A7D
:10099F00A87F057E00120A6F7F38120AA87F057E96
:1009AF0000120A6F7F38120AA87F08120AA87F0167
:1009BF00120AA87F06120AA87F057E00120A6F7F0F
:0409CF000C020AA864
:100A6F00D3EF9400EE940040147D647C00ED1D7074
:0D0A7F00011CED4C70F7EF1F70E61E80E3C8
:010A8C002247
:1008CA0002000EE493A3F8E493A34003F68001F236
:1008DA0008DFF48029E493A3F85407240CC8C3332F
:1008EA00C4540F4420C8834004F456800146F6DFFE
:1008FA00E4800B0102040810204080900A3FE47E45
:10090A00019360BCA3FF543F30E509541FFEE493F2
:10091A00A360010ECF54C025E060A840B8E493A3B9
:10092A00FAE493A3F8E493A3C8C582C8CAC583CAE4
:10093A00F0A3C8C582C8CAC583CADFE9DEE780BE9C
:010A6E000087
:10048C00E709F608DFFA8046E709F208DFFA803E52
:10049C0088828C83E709F0A3DFFA8032E309F6083F
:1004AC00DFFA8078E309F208DFFA807088828C83A7
:1004BC00E309F0A3DFFA806489828A83E0A3F6085B
:1004CC00DFFA805889828A83E0A3F208DFFA804C35
:1004DC0080D280FA80C680D4806980F2803380100C
:1004EC0080A680EA809A80A880DA80E280CA803375
:1004FC0089828A83ECFAE493A3C8C582C8CCC583ED
:10050C00CCF0A3C8C582C8CCC583CCDFE9DEE780BC
:10051C000D89828A83E493A3F608DFF9ECFAA9F03B
:10052C00EDFB2289828A83ECFAE0A3C8C582C8CC91
:10053C00C583CCF0A3C8C582C8CCC583CCDFEADEAA
:10054C00E880DB89828A83E493A3F208DFF980CC0C
:10055C0088F0EF60010E4E60C388F0ED2402B40405
:10056C000050B9F582EB2402B4040050AF232345AC
:06057C0082239004DC73F1
:10058200BB010689828A83E0225002E722BBFE0277
:09059200E32289828A83E49322AA
:10059B00BB010CE58229F582E5833AF583E0225015
:1005AB0006E92582F8E622BBFE06E92582F8E2225F
:0D05BB00E58229F582E5833AF583E4932279
:1005C800EF8DF0A4A8F0CF8CF0A428CE8DF0A42E47
:0205D800FE2201
:1005DA00BC000BBE0029EF8DF084FFADF022E4CC05
:1005EA00F875F008EF2FFFEE33FEEC33FCEE9DECCE
:1005FA00984005FCEE9DFE0FD5F0E9E4CEFD22ED14
:10060A00F8F5F0EE8420D21CFEADF075F008EF2F5D
:10061A00FFED33FD4007985006D5F0F222C398FD4E
:05062A000FD5F0EA22EB
:00000001FF
