:030000000201E416
:0C01E400787FE4F6D8FD75812002022B24
:10033C00234C45444F00234C454446002342555A18
:10034C004F0073706B204F4E0A002342555A4600E3
:09035C0073706B204F46460A0045
:07001900C100C181010800D4
:03039E00DFFE225D
:10037B00AE07AF061EEF600C7F0212039E7F0212C8
:05038B00039E80EE223C
:0E039000EF70087F6412037BB28022D28022BD
:100003001200266010F599740129F9E43AFA30993F
:06001300FDC29980EB2202
:10036500758920E4F587758DFD758BFD759850D2DF
:06037500AFD2ACD28E22D3
:030023000202EBEB
:0D02EB00C0E0C0D075D000C000C006C00744
:1002F800309836C298AF99E5087011EF64237029D9
:10030800AE08050874092EF8A607801DAE08050872
:1003180074092EF8A607E508C39405400C7409254E
:0903280008F87600D20075080007
:0B033100D007D006D000D0D0D0E032C2
:1002700012036530006BC20078097C007D007BFFB3
:100280007A03793C1201C7EF7004F5908053780926
:100290007C007D007BFF7A0379421201C7EF700575
:1002A0007590FF803C78097C007D007BFF7A0379A4
:1002B000481201C7EF700D7BFF7A03794E120003DD
:1002C000C201801D78097C007D007BFF7A0379568E
:1002D0001201C7EF700B7BFF7A03795C120003D227
:0B02E00001A201E433FF1203908088AC
:1001F000020270E493A3F8E493A34003F68001F2B3
:1002000008DFF48029E493A3F85407240CC8C3330F
:10021000C4540F4420C8834004F456800146F6DFDE
:10022000E4800B0102040810204080900019E47E55
:10023000019360BCA3FF543F30E509541FFEE493D3
:10024000A360010ECF54C025E060A840B8E493A39A
:10025000FAE493A3F8E493A3C8C582C8CAC583CAC5
:10026000F0A3C8C582C8CAC583CADFE9DEE780BE7D
:0100200000DF
:10002600BB010689828A83E0225002E722BBFE02D8
:09003600E32289828A83E493220B
:10003F00E3F5F009E208B5F06D606B80F3E3F5F0DE
:10004F0009E608B5F060605E80F387F009E608B551
:10005F00F054605280F487F009E208B5F04860462A
:10006F0080F488828C8387F009E0A3B5F03860367E
:10007F0080F488828C8387F009E493A3B5F027601E
:10008F002580F388828C83E3F5F009E0A3B5F016A1
:10009F00601480F388828C83E3F5F009E493A3B5B1
:1000AF00F004600280F202016A808580E7808E8012
:1000BF00D2803C8015806C807E809B80B5808B8049
:1000CF00A1804F8070803A02018089828A83ECFA86
:1000DF00E493F5F0A3C8C582C8CCC583CCE493A341
:1000EF00C8C582C8CCC583CCB5F070606E80E1897D
:1000FF00828A83E493F5F0A3E208B5F05E605C803A
:10010F00F289828A83E0F5F0A3E608B5F04D604BE3
:10011F0080F389828A83E0F5F0A3E208B5F03C60B2
:10012F003A80F389828A83E493F5F0A3E608B5F069
:10013F002A602880F2805D89828A83ECFAE493F545
:10014F00F0A3C8C582C8CCC583CCE0A3C8C582C8FC
:10015F00CCC583CCB5F004600280E27F00F845F097
:10016F00600EE863F0806480D395F01F40027F013A
:10017F002289828A83ECFAE0F5F0A3C8C582C8CC45
:10018F00C583CCE0A3C8C582C8CCC583CCB5F0CBA2
:10019F0060C980E389828A83ECFAE0F5F0A3C8C5D1
:1001AF0082C8CCC583CCE493A3C8C582C8CCC58311
:1001BF00CCB5F0A760A580E288F0ED2402B404006E
:1001CF005099F582EB2402B40400508F232345820B
:0501DF00239000B8733D
:00000001FF
