:03000000020BE709
:0C0BE700787FE4F6D8FD758174020C2EB6
:0D11020054656D7020202520372E336600C7
:1010690001660001740002670000035C00000003D0
:1010790069173B3B035F173B3B086C30302D303021
:031089002D3030D7
:050CEB00FB7A00795CBA
:100CF0008B308A3189328D338533827583001204BB
:100D0000EF75F00A842430FFE53375F003A4246CFA
:100D1000F8A6078533827583001204EF75F00A8404
:100D2000E5F02430FFE53375F003A4246DF8A60741
:100D3000E53375F003A4246CF8E6FBE53375F003A6
:100D4000A42404FFE4FD1210ACE53375F003A424E1
:100D50006DF8E6FBE53375F003A42405FFE4FD021E
:020D600010ACD5
:100E3900120F43AC06AD07E4120119E4FBFA7980FD
:100E4900783D12000E8F658E648D638C627533FF59
:100E59007534117535028F398E388D378C367B0094
:100E69007A00794C12063E7B007A00794C7D01E4C8
:040E7900FF020F81E4
:100C73001509A809A605150915091509A809A60343
:100C830008A60208A601E5092403F8E6FFC3648069
:100C93009480404DA809860308E6FA08E6F9740132
:100CA30012051CFE745F2FF8E6FFEED39F401FE48E
:100CB30012053EE5092403F8E614FDA80986030896
:100CC300E6FA08E624FFF9EA34FFFA120C73E56644
:100CD300700FFB7A00795CE5092403F8E6FD120C3A
:080CE300F0E5092404F50922E3
:100F0400750802745F2508F8E6FF745C2508F80686
:100F1400E6D39F4012745C2508F8E4F6E566701584
:100F2400AD08120CEB800EE5667013FB7A00795C59
:0E0F3400AD08020CF01508E508C3940050C586
:010F4200228C
:0A111B00438901D2AFD2A9D28C2281
:03000B00020DD013
:100DD000C0E0C0F0C083C082C0D075D000C000C0E9
:100DE00001C002C003C004C005C006C007758CFA6C
:100DF000758A000568E56870020567C39458E56761
:100E000094024014756700756800120E397D027BEC
:100E1000007A00795E120C73E5746002B2A2D0070A
:100E2000D006D005D004D003D002D001D000D0D05D
:090E3000D082D083D0F0D0E03272
:100EC100E4F529F52A75B00FE5B0640F60327F0AA9
:100ED1007E0012108DE5B0640F6025E5B0540F75EA
:100EE1002900F52A44F0F5B0E5B054F0252AF52A99
:100EF100E43529F52975B00FE5B0B40FFBAF2A220F
:020F01007FFF70
:010F030022CB
:100D6200120EC1EF1205900DBB770DA37B0DA07D76
:100D72000D9D7E0DBEB70DACBB0DA9BD0DA6BE0D62
:100D8200C1D70DB5DB0DB2DD0DAFDE0DC4E70DC76A
:100D9200EB0DCAED0DB8EE00000DCD7F01227F02F2
:100DA200227F03227F04227F05227F06227F0722E1
:100DB2007F08227F09227F00227F0A227F0B227F67
:0E0DC2000C227F0D227F0E227F0F227FFF2248
:060A51008B228A23892498
:100A5700E4F525F527E4F526F528120D628F25E53F
:100A670025D3940950F4E52675F00AA42525F52623
:100A7700AB22AA23A924AF27EF3395E08F82F58312
:100A8700E526120550AD27120CF0E5287010E52772
:100A970075F003A42404FF7B5FE4FD1210AC052866
:100AA700C3E5286480948240B1E526C39400400DD5
:100AB700745F2527F8E6FFE526D39F404CAB22AAB3
:100AC70023A924AF27EF3395E08F82F583E412053E
:100AD70050E52775F003A4246DF87630E52775F007
:100AE70003A4246CF87630E52775F003A42404FFEB
:100AF7007B5FE4FD1210ACE52775F003A42405FF26
:100B07007B5FE4FD1210AC15270527C3E52764803A
:070B170094835003020A5C05
:010B1E0022B4
:100B1F00120E7D12110F7B007A00796CE4FD7F04B9
:100B2F00120F8112111BE55EB56B0DE55DB56A08FD
:100B3F00E55CB56903757401120D62EF24F5604130
:100B4F00147003020BDF240270DC7E007F087D5FD0
:100B5F007B007A00796C1205B675712D756E2D7B41
:100B6F00007A00796CE4FD7F04120F817566017BBA
:100B7F00007A00795C120A51E4F567F568F5668032
:100B8F00A57E007F087D5F7B007A00796C1205B629
:100B9F0075712D756E2D7B007A00796CE4FD7F04E5
:100BAF00120F817566017B007A007969120A51E490
:100BBF00F5667D02120CEB7B007A00795C7D0112E9
:100BCF000CF07B007A00795CE4FD120CF0020B351F
:080BDF00E4F574C2A2020B351B
:100FB700C200D2A37F057E00121125C2A37FC87E7F
:100FC700001211257FC87E00121125D2A37F327E21
:100FD70000121125A2A392007F197E00121125A2EB
:010FE7000009
:010FE80022E6
:10101700E4F531F532753108C2A3E532C313F53271
:10102700D2A330A3034332807F197E001211251506
:0A10370031E531D3940050E0AF32F0
:01104100228C
:020FE9008F3146
:100FEB00E4F532753208C2A3E5311392A37F197E63
:100FFB0000121125D2A3E531C313F5311532E532B9
:0C100B00D3940050E17F197E00021125F3
:100F4300E4F530FFFEFDFC120FB77FCC120FE97FF3
:100F530044120FE97F0A7E0012108D120FB77FCC67
:100F6300120FE97FBE120FE91210178F30121017FC
:0D0F7300EF7F00FEEF2530FDE43EFEAF05F0
:010F8000224E
:0A112500EF1F70011E144E70F72238
:10108D00AD07AC06ED1DAE0470011C4E60107FF572
:0F109D007E001211257FF57E0012112580E622BC
:1010F2007580FFC2A4D2A5C2A600D2A6E580332283
:1010C6008F367F057E0012108DC2A4C2A5D2A685DA
:0610D600368000C2A622D4
:0C110F007F011210C67F057E0002108DCB
:1010DC008F367F057E0012108DD2A4C2A5D2A685B4
:0610EC00368000C2A622BE
:1010AC008F348B35ED7006E53424808004E53424D0
:0A10BC00C0FF1210C6AF350210DCB1
:100F81008F308B318A328933ED7006E530248080D1
:100F910004E53024C0FF1210C6AB31AA32A93312C6
:100FA10004D6FF60101210DC74012533F533E435EB
:060FB10032F53280E4225B
:100E7D007F381210C67F057E0012108D7F3812103C
:100E8D00C67F057E0012108D7F381210C67F057E3D
:100E9D000012108D7F381210C67F081210C67F0108
:100EAD001210C67F061210C67F057E0012108D7FB0
:040EBD000C0210C64D
:10000E00EC4D6011E8497017ED33EC3304600DE4EC
:10001E00FCFFFEFD22E933E8330470F8020187127B
:10002E00015258046009E4CC24815006285009027C
:10003E00019128400302018EC0E0EB4A7044B98062
:10004E0006D0E0FB02017DEF4E701CBD8008EBFF79
:10005E00EAFEE9FD80EBE98DF0A4FEE5F00200F783
:10006E00E9CDF9EAFEEBFFEF89F0A4FCE5F0CE89CD
:10007E00F0A42EFFE435F0CD89F0A42DFEE435F08A
:10008E008067EF4E7005BD80D780C3EF8BF0A4ACB8
:10009E00F0EE8BF0A42CFCE435F0F8EF8AF0A42CF3
:1000AE00E5F038FCE433CB8DF0A42CFCE5F03BF806
:1000BE00EE8AF0A42CFCE5F038F8E433CF89F0A4F6
:1000CE002CFCE5F038CF3400CE89F0A42FFFE5F0FC
:1000DE003EFEE433C98DF0A42EFEE5F039CD8AF054
:1000EE00A42FFFE5F03EFEE43DFD33D0E0FB5007CC
:1000FE000BBB000F020191EC2CFCEF33FFEE33FE35
:06010E00ED33FD02016962
:1001140075F020800E75F010800575F0087D007E66
:10012400007F003392D530D503120572EC334010B2
:10013400EF33FFEE33FEED33FDEC33FCD5F0ED226F
:0E014400E5F0247EA2D513CC92E7CDCEFF22AB
:1005E200E5472433F8E605472278303007027833AE
:1005F200E475F0011205800204D62000EB7F2ED2B2
:10060200008018EF540F2490D43440D4FF30040BF0
:10061200EF24BFB41A0050032461FFE548600215BD
:1006220048054BE54B7002054A30070D7830E475FA
:10063200F001120580EF02053E0210427403D20758
:100642008003E4C207F5478B308A318932E4F548EA
:10065200F54AF54BE54860077F2012061D80F575C7
:1006620049FFC201C200C202C203C205C206C208D9
:100672001205EBFF700D3007057F0012062EAF4BFF
:10068200AE4A22B4255FC2D5C2041205EBFF24D0C4
:10069200B40A00501A75F00A784830D50508B6FF3A
:1006A2000106C6A426F620D5047002D20380D924FE
:1006B200CFB41A00EF5004C2E5D20402091BD201E2
:1006C20080C6D20080C0D20280BCD2D580BAD20508
:1006D20080B47F2012061D2002077401B548004035
:1006E200F11205E2FF12061D020656D208D206805A
:1006F200951205E2FB1205E2FA1205E2F94A4B7085
:100702000679127A0A7BFF20022EE548602A7E00D3
:100712008E827583001204EF60060EEE654970F05A
:10072200C2D5EBC0E0EAC0E0E9C0E0EE12097BD03E
:10073200E0F9D0E0FAD0E0FB1204D6FF60AAEBC0E9
:10074200E0EAC0E0E9C0E012061DD0E02401F9D0E1
:10075200E03400FAD0E0FBE5490460DCD549D980F9
:1007620087D20280A212095E60F7E5497001041285
:10077200019CA949600DE549600914F549120A0571
:10078200EF60F3EA30E702F404C3995077EAF42504
:10079200490430E701E404F549800D12095E60C1A5
:1007A200EA0549254912019CEA7846F630E701E458
:1007B200254904D549042005011412097BE4C0E04F
:1007C200120A057846E6601320E70714F6120605BA
:1007D200802204F6D0E014C0E07F00120605E5494D
:1007E20060071205FC1549800B3005031205FCD089
:1007F200E0020656D0E00480C512095E60A0E54919
:100802000412019C7846EAF6E549200502600104DB
:05081200240412097B23
:1008170074FF04C0E0120A05120605E54920050227
:1008270060031205FCD0E0B549E87F4512060F7852
:1008370046E67F2B30E7047F2DF404C0E012061D47
:10084700D0E075F00A84C0F0120606D0E012060662
:10085700020656791080027908C206C2088008D2BB
:10086700D5790A8004790AC2D5E549047002F549A9
:10087700E4FAFDFEFF1205E2FC7B082001131205D6
:10088700E2FD7B1030000A1205E2FE1205E2FF7B53
:1008970020EC3382D592D55013C3E43000069FFF76
:1008A700E49EFEE42001039DFDE49CFCE4CBF8C23A
:1008B70001EC700CCFCECDCCE824F8F870F380179C
:1008C700C3EF33FFEE33FEED33FDEC33FCEB33FBCD
:1008D700994002FB0FD8E9EB300105F8D0E0C44896
:1008E700B201C0E00AEC4D4E4F78207B0070C2EA9F
:1008F700B5490040BCC0E012097DD0F0D0E020012E
:1009070004C4C0E0C4B201C0F0120606D0F0D5F0AE
:10091700EB02065612059006F353085A5806C44CC4
:1009270006C042085E4F08664408664906D9430870
:100937006C55079D4607FB450767470A325006C8AF
:100947002D06CC2E06EF2B06D02306ED200A1B2AF8
:10095700068848000006E7E549B4FF037549061213
:1009670005E2FC1205E2FD1205E2FE1205E2FF7840
:100977003F0201CB790AA2D5200314300509B9102B
:10098700020404B9080104A2D5200602500104207C
:1009970002689202B548005034C0E07F2030031946
:1009A7007F30A20272067205500F1209D4C202C22A
:1009B70006C205C2087F30800F300503E9C0E01288
:1009C700061D300503D0E0F9D0E0B548CC30051757
:1009D7007F30B9100C12061D7F583004077F7880CE
:1009E70003B9080312061D3002057F2D02061D7F7D
:1009F700202008F87F2B2006F322920280CF7F0069
:100A0700B407005005243FF8E6FF22286E756C6C8A
:100A17002900D2011205E23001F8C201784830D529
:100A27000108F60206882D504349581205E22403AF
:100A3700B405004001E4900A2D9312060E743A1291
:0A0A4700060ED20375480402085A97
:10015200E9D2E7C933E833F892D5EDD2E7CD33ECF3
:0701620033FC5002B2D5226C
:10016900EC30E7100FBF000C0EBE00080DBD0004F7
:100179000BEB6014A2D5EB13FCED92E7FD2274FFA3
:10018900FCFDFEFF22E480F8A2D574FF13FC7D80FC
:03019900E480EF10
:10019C00F920E72824F950037907E4F42402FB182A
:1001AC00DBFDE624FB5014E9600DE4F618E604F6DA
:0F01BC00B40A08E4F6D9F57401F60A22C2D52276
:1001CB00ED33EC3392D5FA602AB4FF33EDC2E77B03
:1001DB00FF60067A0179F0E4227A0179F920D504DF
:1001EB007A0179F4224E614E002B494E46002D497F
:1001FB004E4600E47A08F608DAFC7B00740722E826
:10020B00C0E0ECC0E0EDC0E0EEC0E0EFC0E0EA75AE
:10021B00F010A4CAABF075F04DA42BFBE435F0FC49
:10022B00EA2410FAEB34C5FBEC34D9FCEDC2E7FF42
:10023B0075F056A4F42411C5F0F434C58FF0A42A3C
:10024B00E5F03BE43CF620E714120496D0E0FFD037
:10025B00E0FED0E0FDD0E0FC1203C98014F40412E0
:10026B000496D0E0FFD0E0FED0E0FDD0E0FC120021
:10027B000ED0E0F8E6FAEDD2E7CD33EC332482FB77
:10028B00E4C3CF33CFCE33CECD33CD33DBF37B07CC
:10029B0075F00A846004F6081B0AE5F0F6088FF087
:1002AB00740AA4FFACF08EF0740AA42CFEACF050D0
:1002BB00010C8DF0740AA42CFDE435F0F608DBDE9E
:0302CB0074072293
:1002CE00020187E86480F8E933E83360110460F0D6
:1002DE00ED33EC337009E8FCE9FDEAFEEBFF220496
:1002EE0060DED3EB9FEA9EE99DE8C2E78CF0C2F791
:1002FE0095F0400CE8CCF8E9CDF9EACEFAEBCFFB5D
:10030E0012015285D0F05804700320D5B3E8047062
:10031E00075002B2D502019192D5EC0460F7E4CCFD
:10032E00C0E0C398F8603B94186008400DD0E0FB25
:10033E00020169E4FBFAC9FC8028E830E406E4C94E
:10034E00FBE4CAFCE830E305E4C9CACBFCE8540779
:10035E006010F8C3E913F9EA13FAEB13FBEC13FC84
:10036E00D8F130F52FC3E49CFCEF9BFFEE9AFEED27
:10037E0099FDD0E0FBEF4E4D4C701222DB030201D3
:10038E008EEC2CFCEF33FFEE33FEED33FDED30E75C
:10039E00EB020169EF2BFFEE3AFEED39FDD0E0FBEB
:1003AE0050130BBB0003020191ED13FDEE13FEEF94
:0803BE0013FFEC13FC020169BE
:1003C600020191EC5D046005E8590470030201879F
:1003D600120152580460F6EC4860F2EC7004FDFE1F
:1003E600FF22C860DB2481C85009C398600250060A
:1003F60002018E9850CAF582E9294B4A7005AB82F4
:1004060002017D75F0007C1A7880C3EF9BEE9AEDB1
:1004160099400DC3EF9BFFEE9AFEED99FDE842F081
:10042600DC23ACF0D0E0FFD0E0FED0E0FDAB8220D4
:10043600E7101BEB60BAEC2CFCEF33FFEE33FEED5E
:1004460033FD020169E803F830E705C0F075F000F6
:10045600EF2FFFEE33FEED33FD40B830E7C280AA42
:100466003F8000004120000042C80000447A00009E
:10047600461C400047C35000497424004B18968020
:100486004CBEBC205A0E1BCA6753C21C749DC5AE17
:10049600FB60065407601C23231204C4EB54386027
:1004A600091204B01204BF12000EECF8EDF9EEFAD0
:1004B600EFCB22EB1204BF80F1543803241C9004C6
:1004C60066FE93FC0EEE93FD0EEE930ECE93FF2288
:100BF300020B1FE493A3F8E493A34003F68001F2EE
:100C030008DFF48029E493A3F85407240CC8C33302
:100C1300C4540F4420C8834004F456800146F6DFD1
:100C2300E4800B0102040810204080901069E47EE8
:100C3300019360BCA3FF543F30E509541FFEE493C6
:100C4300A360010ECF54C025E060A840B8E493A38D
:100C5300FAE493A3F8E493A3C8C582C8CAC583CAB8
:100C6300F0A3C8C582C8CAC583CADFE9DEE780BE70
:01108C000063
:1004D600BB010689828A83E0225002E722BBFE0224
:0904E600E32289828A83E4932257
:1004EF00BB010CE58229F582E5833AF583E02250C2
:1004FF0006E92582F8E622BBFE06E92582F8E2220C
:0D050F00E58229F582E5833AF583E4932225
:10051C00BB010989828A83F8E028F022500327F76F
:10052C0022BBFE05F8E328F3228A838982F8E49340
:02053C00282273
:10053E00BB010689828A83F0225002F722BBFE019C
:02054E00F32296
:10055000F8BB010DE58229F582E5833AF583E8F0E1
:10056000225006E92582C8F622BBFE05E92582C88D
:02057000F22275
:0E057200C3E49FFFE49EFEE49DFDE49CFC229A
:10058000FAE6FB0808E6F925F0F618E6CA3AF6227C
:10059000D083D082F8E4937012740193700DA3A3FA
:1005A00093F8740193F5828883E47374029368600E
:0605B000EFA3A3A380DF0E
:10104200EFB40A07740D12104D740A309811A89962
:10105200B8130CC2983098FDA899C298B811F6300E
:0710620099FDC299F59922E6
:1005B600EF4E6012EF60010EEDBB010B89828A835C
:1005C600F0A3DFFCDEFA2289F05007F709DFFCA969
:0C05D600F022BBFEFCF309DFFCA9F022C0
:00000001FF
