:030000000200BE3D
:0C00BE00787FE4F6D8FD7581090200B0DF
:10006600D4D4BED49FA9D4D4BED48E9FD4D46A7E11
:100076009FA9BE77777E9F8E9F0009030C0C0C18F4
:1000860009030C0C0C1809030C0C0C0C0C09030CC2
:040096000C0C180036
:10009A00EF1FAA0670011E4A600BE4FDEDC39478B7
:0500AA0050EE0D80F78F
:0100AF00222E
:10000300E4F508F509AF09EF900080937007EF90CE
:10001300006693604DE4FDFCE5099000809375F064
:1000230014A4FFC3ED9FEC95F05026B2A4E4FFFEA9
:10003300E5099000669375F00384FBC3EF9BEE9490
:100043000050070FBF00010E80E60DBD00010C80BC
:10005300C77F0A7E0012009A0509E50970A7050803
:0200630080A378
:010065002278
:0E00B000C2A41200037FF47E0112009A80F4B5
:00000001FF
