:03000000020003F8
:0C000300787FE4F6D8FD75812902004AE0
:0801DC00FEFDFBF7EFDFBF7F22
:10015F0010083F065B4F666D7D077F6F777C395EBA
:10016F00797110193F065B4F666D7D077F6F777C46
:04017F00395E7971FB
:1001840012010C1201C650F87F0A7E001201A71258
:1001940001C650EC12008F8F181201D3AF18120150
:0301A4003880DDC3
:0D01C6007590F0E59064F06002D322C32232
:0901D3007590F0E590B4F0F822FB
:10013800BF100A7E0878087440F608DEFC74192F90
:10014800F8E6F510E4FE74092EF8E6FF74082EF8B8
:06015800A6070EBE08F030
:01015E00227E
:10010C00E4F529E5299001DC93F580D2A3C2A37410
:10011C00082529F8E6F580D2A4C2A47F017E00123E
:0B012C0001A70529E529C3940840D86D
:0101370022A5
:10008F007590FEE590B47E027F01E590B4BE027FCD
:10009F0002E590B4DE027F03E590B4EE027F0475B3
:1000AF0090FDE590B47D027F05E590B4BD027F0819
:1000BF00E590B4DD027F0BE590B4ED027F0E7590F5
:1000CF00FBE590B47B027F06E590B4BB027F09E5A8
:1000DF0090B4DB027F0CE590B4EB027F0F7590F7C5
:1000EF00E590B477027F07E590B4B7027F0AE590F9
:0C00FF00B4D7027F0DE590B4E7027F103B
:01010B0022D1
:1001A700E4FDFCC3ED9FEC9E50147B6E7A00EB1BC5
:0E01B70070011AEB4A70F70DBD00010C80E5D7
:0101C5002217
:10000F00020184E493A3F8E493A34003F68001F282
:10001F0008DFF48029E493A3F85407240CC8C333F2
:10002F00C4540F4420C8834004F456800146F6DFC1
:10003F00E4800B010204081020408090015FE47EF1
:10004F00019360BCA3FF543F30E509541FFEE493B6
:10005F00A360010ECF54C025E060A840B8E493A37D
:10006F00FAE493A3F8E493A3C8C582C8CAC583CAA8
:10007F00F0A3C8C582C8CAC583CADFE9DEE780BE60
:01018300007B
:00000001FF
