:030000000200CC2F
:0C00CC00787FE4F6D8FD75810802008002
:100080001200BF50FB7F0A7E001200A01200BF507A
:0E009000EF1200038F081200D8E508F4F58087
:02009E0080E000
:0D00BF007590F0E59064F06002D322C3223A
:0900D8007590F0E590B4F0F822F7
:100003007590FEE590B47E027F01E590B4BE027F59
:1000130002E590B4DE027F03E590B4EE027F04753F
:1000230090FDE590B47D027F05E590B4BD027F08A5
:10003300E590B4DD027F0BE590B4ED027F0E759081
:10004300FBE590B47B027F06E590B4BB027F09E534
:1000530090B4DB027F0CE590B4EB027F0F7590F751
:10006300E590B477027F07E590B4B7027F0AE59085
:0C007300B4D7027F0DE590B4E7027F10C7
:01007F00225E
:1000A000E4FDFCC3ED9FEC9E50147B6E7A00EB1BCD
:0E00B00070011AEB4A70F70DBD00010C80E5DF
:0100BE00221F
:00000001FF
