:03000000020016E5
:0C001600787FE4F6D8FD75812002005DC3
:07010800C101C1000108FE66
:07011000D28AD2AFD2AA226D
:0A00FE00EFD3940040031F80F722A7
:0E000300E4FFFE0FBF00010EBE75F8BF30F522
:0100110022CC
:1000A2008508A012000320010FE50825E04401F5B0
:1000B20008B4FF127508FE22E508C3134480F50850
:0600C200B4FF0375087F86
:0100C8002215
:030013000200C91F
:1000C900C0E0C0D075D000C0077FC81200FE20B3C1
:0C00D90004D200C2AAD007D0D0D0E03280
:1000E5001201101200A23000FA20B3051200A280FE
:0900F500F8B201C200D2AA80EAAF
:100022000200E5E493A3F8E493A34003F68001F20F
:1000320008DFF48029E493A3F85407240CC8C333DF
:10004200C4540F4420C8834004F456800146F6DFAE
:10005200E4800B0102040810204080900108E47E35
:10006200019360BCA3FF543F30E509541FFEE493A3
:10007200A360010ECF54C025E060A840B8E493A36A
:10008200FAE493A3F8E493A3C8C582C8CAC583CA95
:10009200F0A3C8C582C8CAC583CADFE9DEE780BE4D
:01010F0000EF
:00000001FF
