:03000000020C549B
:0C0C5400787FE4F6D8FD7581530209D6C4
:0B0C6C0054656D702025372E336600A4
:1009D600120A75120C607B69E4FD7F03120BFE7B25
:1009E6006CE4FD7F05120BFE7B6FE4FD7F06120BA8
:1009F600FE7B76E4FD7F07120BFE7B65E4FD7F0838
:100A0600120BFE7B79E4FD7F0A120BFE7B6FE4FD81
:100A16007F0B120BFE7B75E4FD7F0C120BFE120A98
:100A2600B98E228F23AC22AD23EC12010EE4FBFA21
:100A36007980783D1200038F278E268D258C2475AC
:100A46003BFF753C0C753D6C8F418E408D3F8C3E57
:100A56007B007A0079281205C37B007A0079287D0D
:0F0A6600017F01120AF77F327E00120BDF80AF93
:100C44007580FFC2A4D2A5C2A600D2A6E580332235
:100C18008F3C7F057E00120BDFC2A4C2A5D2A68539
:060C28003C8000C2A62280
:0C0C60007F01120C187F057E00020BDFE4
:100C2E008F3C7F057E00120BDFD2A4C2A5D2A68513
:060C3E003C8000C2A6226A
:100BFE008F388B39ED7006E53824808004E5382473
:0A0C0E00C0FF120C18AF39020C2EC3
:100AF7008F388B398A3A893BED7006E53824808038
:100B070004E53824C0FF120C18AB39AA3AA93B12E6
:100B170004CBFF6010120C2E7401253BF53BE43526
:060B27003AF53A80E422D9
:100A75007F38120C187F057E00120BDF7F38120CB1
:100A8500187F057E00120BDF7F38120C187F057E5C
:100A950000120BDF7F38120C187F08120C187F012B
:100AA500120C187F06120C187F057E00120BDF7FD3
:040AB5000C020C180B
:0A0C7700EF1F70011E144E70F722EB
:100BDF00AD07AC06ED1DAE0470011C4E60107FF525
:0F0BEF007E00120C777FF57E00120C7780E622D5
:100B2D00C200D2937F057E00120C77C2937FC87EE0
:100B3D0000120C777FC87E00120C77D2937F327E25
:100B4D0000120C77A29392007F197E00120C77A2EF
:010B5D000097
:010B5E002274
:100B8D00E4F539F53A753908C293E53AC313F53AE8
:100B9D00D293309303433A807F197E00120C771560
:0A0BAD0039E539D3940050E0AF3A67
:010BB700221B
:020B5F008F39CC
:100B6100E4F53A753A08C293E5391392937F197EF9
:100B710000120C77D293E539C313F539153AE53AEA
:0C0B8100D3940050E17F197E00020C7735
:100AB900E4F538FFFEFDFC120B2D7FCC120B5F7F96
:100AC90044120B5F7F0A7E00120BDF120B2D7FCCC5
:100AD900120B5F7FBE120B5F120B8D8F38120B8DBD
:0D0AE900EF7F00FEEF2538FDE43EFEAF0577
:010AF60022DD
:10000300EC4D6011E8497017ED33EC3304600DE4F7
:10001300FCFFFEFD22E933E8330470F802017C1291
:10002300014758046009E4CC248150062850090292
:100033000186284003020183C0E0EB4A7044B98083
:1000430006D0E0FB020172EF4E701CBD8008EBFF8F
:10005300EAFEE9FD80EBE98DF0A4FEE5F00200EC99
:10006300E9CDF9EAFEEBFFEF89F0A4FCE5F0CE89D8
:10007300F0A42EFFE435F0CD89F0A42DFEE435F095
:100083008067EF4E7005BD80D780C3EF8BF0A4ACC3
:10009300F0EE8BF0A42CFCE435F0F8EF8AF0A42CFE
:1000A300E5F038FCE433CB8DF0A42CFCE5F03BF811
:1000B300EE8AF0A42CFCE5F038F8E433CF89F0A401
:1000C3002CFCE5F038CF3400CE89F0A42FFFE5F007
:1000D3003EFEE433C98DF0A42EFEE5F039CD8AF05F
:1000E300A42FFFE5F03EFEE43DFD33D0E0FB5007D7
:1000F3000BBB000F020186EC2CFCEF33FFEE33FE4B
:06010300ED33FD02015E78
:1001090075F020800E75F010800575F0087D007E71
:10011900007F003392D530D503120523EC3340100C
:10012900EF33FFEE33FEED33FDEC33FCD5F0ED227A
:0E013900E5F0247EA2D513CC92E7CDCEFF22B6
:10056700E54F243BF8E6054F227838300702783B01
:10057700E475F0011205310204CB2000EB7F2ED287
:10058700008018EF540F2490D43440D4FF30040B6C
:10059700EF24BFB41A0050032461FFE55060021531
:1005A700500553E5537002055230070D7838E4754E
:1005B700F001120531EF020511020BB87403D207DF
:1005C7008003E4C207F54F8B388A39893AE4F5503E
:1005D700F552F553E55060077F201205A280F575A7
:1005E70051FFC201C200C202C203C205C206C2084D
:1005F700120570FF700D3007057F001205B3AF536A
:10060700AE5222B4255FC2D5C204120570FF24D0B2
:10061700B40A00501A75F00A785030D50508B6FFAD
:100627000106C6A426F620D5047002D20380D92479
:10063700CFB41A00EF5004C2E5D2040208A0D201D9
:1006470080C6D20080C0D20280BCD2D580BAD20583
:1006570080B47F201205A22002077401B550004024
:10066700F1120567FF1205A20205DBD208D2068048
:1006770095120567FB120567FA120567F94A4B7071
:100687000679977A097BFF20022EE550602A7E00C3
:100697008E827583001204E460060EEE655170F0D9
:1006A700C2D5EBC0E0EAC0E0E9C0E0EE120900D035
:1006B700E0F9D0E0FAD0E0FB1204CBFF60AAEBC070
:1006C700E0EAC0E0E9C0E01205A2D0E02401F9D0D9
:1006D700E03400FAD0E0FBE5510460DCD551D98065
:1006E70087D20280A21208E360F7E5517001041275
:1006F7000191A951600DE551600914F55112098A5C
:10070700EF60F3EA30E702F404C3995077EAF4257F
:10071700510430E701E404F551800D1208E360C18C
:10072700EA05512551120191EA784EF630E701E4C6
:10073700255104D5510420050114120900E4C0E035
:1007470012098A784EE6601320E70714F612058A25
:10075700802204F6D0E014C0E07F0012058AE5513C
:1007670060071205811551800B300503120581D0F2
:10077700E00205DBD0E00480C51208E360A0E55184
:1007870004120191784EEAF6E55120050260010452
:0507970024041209001A
:10079C0074FF04C0E012098A12058AE55120050293
:1007AC006003120581D0E0B551E87F4512059478BD
:1007BC004EE67F2B30E7047F2DF404C0E01205A237
:1007CC00D0E075F00A84C0F012058BD0E012058BD6
:1007DC000205DB791080027908C206C2088008D2B3
:1007EC00D5790A8004790AC2D5E551047002F55115
:1007FC00E4FAFDFEFF120567FC7B082001131205CD
:10080C0067FD7B1030000A120567FE120567FF7B3F
:10081C0020EC3382D592D55013C3E43000069FFFF1
:10082C00E49EFEE42001039DFDE49CFCE4CBF8C2B5
:10083C0001EC700CCFCECDCCE824F8F870F3801717
:10084C00C3EF33FFEE33FEED33FDEC33FCEB33FB48
:10085C00994002FB0FD8E9EB300105F8D0E0C44811
:10086C00B201C0E00AEC4D4E4F78207B0070C2EA1A
:10087C00B5510040BCC0E0120902D0F0D0E020011C
:10088C0004C4C0E0C4B201C0F012058BD0F0D5F0A6
:10089C00EB0205DB12054106785307DF5806494C7D
:1008AC0006454207E34F07EB4407EB49065E430757
:1008BC00F15507224607804506EC4709B750064D0F
:1008CC002D06512E06742B06552306722009A02ADC
:1008DC00060D480000066CE551B4FF037551061275
:1008EC000567FC120567FD120567FE120567FF78A8
:1008FC00470201C0790AA2D5200314300509B910AA
:10090C00020404B9080104A2D520060250010420F7
:10091C0002689202B550005034C0E07F20300319B9
:10092C007F30A20272067205500F120959C202C220
:10093C0006C205C2087F30800F300503E9C0E01203
:10094C0005A2300503D0E0F9D0E0B550CC30051746
:10095C007F30B9100C1205A27F583004077F7880C5
:10096C0003B908031205A23002057F2D0205A27FF0
:10097C00202008F87F2B2006F322920280CF7F00E4
:10098C00B4070050052447F8E6FF22286E756C6CFE
:10099C002900D2011205673001F8C201785030D518
:1009AC000108F602060D2D50434958120567240321
:1009BC00B405004001E49009B293120593743A1205
:0A09CC000593D2037550040207DF03
:10014700E9D2E7C933E833F892D5EDD2E7CD33ECFE
:0701570033FC5002B2D52277
:10015E00EC30E7100FBF000C0EBE00080DBD000402
:10016E000BEB6014A2D5EB13FCED92E7FD2274FFAE
:10017E00FCFDFEFF22E480F8A2D574FF13FC7D8007
:03018E00E480EF1B
:10019100F920E72824F950037907E4F42402FB1835
:1001A100DBFDE624FB5014E9600DE4F618E604F6E5
:0F01B100B40A08E4F6D9F57401F60A22C2D52281
:1001C000ED33EC3392D5FA602AB4FF33EDC2E77B0E
:1001D000FF60067A0179E5E4227A0179EE20D50400
:1001E0007A0179E9224E614E002B494E46002D4995
:1001F0004E4600E47A08F608DAFC7B00740722E831
:10020000C0E0ECC0E0EDC0E0EEC0E0EFC0E0EA75B9
:10021000F010A4CAABF075F04DA42BFBE435F0FC54
:10022000EA2410FAEB34C5FBEC34D9FCEDC2E7FF4D
:1002300075F056A4F42411C5F0F434C58FF0A42A47
:10024000E5F03BE43CF620E71412048BD0E0FFD04D
:10025000E0FED0E0FDD0E0FC1203BE8014F40412F6
:10026000048BD0E0FFD0E0FED0E0FDD0E0FC120037
:1002700003D0E0F8E6FAEDD2E7CD33EC332482FB8D
:10028000E4C3CF33CFCE33CECD33CD33DBF37B07D7
:1002900075F00A846004F6081B0AE5F0F6088FF092
:1002A000740AA4FFACF08EF0740AA42CFEACF050DB
:1002B000010C8DF0740AA42CFDE435F0F608DBDEA9
:0302C0007407229E
:1002C30002017CE86480F8E933E83360110460F0EC
:1002D300ED33EC337009E8FCE9FDEAFEEBFF2204A1
:1002E30060DED3EB9FEA9EE99DE8C2E78CF0C2F79C
:1002F30095F0400CE8CCF8E9CDF9EACEFAEBCFFB68
:1003030012014785D0F05804700320D5B3E8047078
:10031300075002B2D502018692D5EC0460F7E4CC13
:10032300C0E0C398F8603B94186008400DD0E0FB30
:1003330002015EE4FBFAC9FC8028E830E406E4C964
:10034300FBE4CAFCE830E305E4C9CACBFCE8540784
:100353006010F8C3E913F9EA13FAEB13FBEC13FC8F
:10036300D8F130F52FC3E49CFCEF9BFFEE9AFEED32
:1003730099FDD0E0FBEF4E4D4C701222DB030201DE
:1003830083EC2CFCEF33FFEE33FEED33FDED30E772
:10039300EB02015EEF2BFFEE3AFEED39FDD0E0FB01
:1003A30050130BBB0003020186ED13FDEE13FEEFAA
:0803B30013FFEC13FC02015ED4
:1003BB00020186EC5D046005E85904700302017CC0
:1003CB00120147580460F6EC4860F2EC7004FDFE35
:1003DB00FF22C860DB2481C85009C3986002500615
:1003EB000201839850CAF582E9294B4A7005AB820A
:1003FB0002017275F0007C1A7880C3EF9BEE9AEDC8
:10040B0099400DC3EF9BFFEE9AFEED99FDE842F08C
:10041B00DC23ACF0D0E0FFD0E0FED0E0FDAB8220DF
:10042B00E7101BEB60BAEC2CFCEF33FFEE33FEED69
:10043B0033FD02015EE803F830E705C0F075F0000C
:10044B00EF2FFFEE33FEED33FD40B830E7C280AA4D
:10045B003F8000004120000042C80000447A0000A9
:10046B00461C400047C35000497424004B1896802B
:10047B004CBEBC205A0E1BCA6753C21C749DC5AE22
:10048B00FB60065407601C23231204B9EB5438603D
:10049B00091204A51204B4120003ECF8EDF9EEFAFC
:1004AB00EFCB22EB1204B480F1543803241C9004DC
:1004BB005BFE93FC0EEE93FD0EEE930ECE93FF229E
:1004CB00BB010689828A83E0225002E722BBFE022F
:0904DB00E32289828A83E4932262
:1004E400BB010CE58229F582E5833AF583E02250CD
:1004F40006E92582F8E622BBFE06E92582F8E22217
:0D050400E58229F582E5833AF583E4932230
:10051100BB010689828A83F0225002F722BBFE01C9
:02052100F322C3
:0E052300C3E49FFFE49EFEE49DFDE49CFC22E9
:10053100FAE6FB0808E6F925F0F618E6CA3AF622CB
:10054100D083D082F8E4937012740193700DA3A349
:1005510093F8740193F5828883E47374029368605D
:06056100EFA3A3A380DF5D
:100BB800EFB40A07740D120BC3740A309811A89980
:100BC800B8130CC2983098FDA899C298B811F6309D
:070BD80099FDC299F5992275
:00000001FF
