:0300000002007B80
:0C007B00787FE4F6D8FD758109020003CF
:100067003F065B4F666D7D077F6F777CFEFDFBF775
:04007700EFDFBF7F79
:10004900D3EF9400EE940040147D6E7C00ED1D709A
:0D005900011CED4C70F7EF1F70E61E80E3F8
:010066002277
:10000300E4FAF508F509E4FBEB90007393F590D25D
:10001300A3C2A3EB2A90006793F590D2A2C2A27F5A
:10002300017E001200490509E50970020508B4E8DC
:100033000FE508B4030AE4F508F5090ABA0901FA59
:060043000BBB08C480C0E5
:00000001FF
