:030000000203D028
:0C03D000787FE4F6D8FD7581590204170F
:100660003F065B4F666D7D077F6FFEFDFBF7EFDF9B
:02067000BF7F4A
:0D051100011900C101C102C104C100C103F4
:1001E1001206721204BD8F17E51714B40800505897
:1001F1009001FF75F003A4C58325F0C58373020246
:100201001702024302022302024702022F0202499D
:1002110002023B02023F0515E5156418702AF51527
:1002210080260512E512643C701EF512801A05083D
:10023100E508B43C13E4F508800ED201800AD2042B
:100241008006D2028002D20330041485150985127A
:1002510018850816E4F508F512F515C201C2043037
:100261000547C205E51575F00A8490066093F50A05
:10027100E51575F00A84E5F093F50B750C40E51270
:1002810075F00A8493F50DE51275F00A84E5F09393
:10029100F50E750F40E50875F00A8493F510E50831
:1002A10075F00A84E5F093F51130023C200039E441
:1002B100F513F51412055D8E138F14751A0085154B
:1002C1001BE4F513F51412055D8E138F14AC13ADF9
:1002D10014EC120119E4FBFA7920783F12000E1296
:1002E10001528F15D200C20230000A300207851B6D
:1002F10015C202C200E509651560030201E4E518B3
:10030100651260030201E4E516650860030201E479
:10031100E515700BE5087007E51270030201E412A0
:10032100045C7F8812064B2001030201E4300303C1
:0F0331000201E48515098512188508160201E4FA
:03000300DFFE22FB
:10064B00AE07AF061EEF600C7FF51200037FF512AD
:05065B00000380EE2207
:03051E00011F00BA
:10059900E4F580D2A2C2A2E51F2FFFE433FE746AFC
:1005A9002FF58274063EF583E493F580D2A3C2A3A6
:1005B900740A251FF8E6F580D2A2C2A2051FE51F1D
:0705C900B50503E4F51F2254
:100521001A3BD4D4BED49FA9D4D4BED48E9FD4D4E4
:100531006A7E9FA9BE77777E9F8E9F001A2109034D
:100541000C0C0C1809030C0C0C1809030C0C0C0CEA
:080551000C09030C0C0C18004E
:10045C00E4F51CF51DAF1D74212FF8E67007743BF5
:10046C002FF8E6604BE4FDFC7421251DF8E675F0D1
:10047C0014A4FFC3ED9FEC95F05026B2A4E4FFFE4C
:10048C00743B251DF8E675F00384FBC3EF9BEE94DB
:10049C000050070FBF00010E80E60DBD00010C805F
:1004AC00C77F0A12064B051DE51D70A9051C80A50A
:0104BC00221D
:1004BD00E590F4604C7F0A12064BE590F46042AF74
:1004CD0090E590B4FFFBEF2481603024C0602924B7
:1004DD00E0602224F0601B24F8601424FC600D24DD
:1004ED00FE60061470187F01227F02227F03227F97
:1004FD0004227F05227F06227F07227F08227F00AC
:03050D00227F004A
:0105100022C8
:0305590001590045
:0A067200438901D2AFD2A9D28C2235
:03000B00020340AD
:10034000C0E0C0F0C083C082C0D075D000C000C083
:0D03500001C002C003C004C005C006C00704
:10035D00758CF8758A307D08E4FF1205990558E50E
:10036D005870020557640A45577006F557F558D26F
:10037D00053001340556E55670020555B4F429E5EE
:10038D0055B401247555007556000508E508B43CB3
:10039D00177508000512E512B43C0D751200051510
:0803AD00E515B41803751500F5
:1003B500D007D006D005D004D003D002D001D0009C
:0B03C500D0D0D082D083D0F0D0E03246
:10062300C206D2A57F05120003C2A57FC81200032C
:100633007FC8120003D2A57F32120003A2A592063F
:070643007F19120003A2065B
:01064A00228D
:1005FA00E4F51DF51E751D08C2A5E51EC313F51EFB
:10060A00D2A530A503431E807F19120003151DE5EC
:08061A001DD3940050E2AF1E55
:0106220022B5
:0205D0008F1D7D
:1005D200E4F51E751E08C2A5E51D1392A57F19122A
:1005E2000003D2A5E51DC313F51D151EE51ED39408
:0805F2000050E37F1902000331
:10055D00E4F51CFFFEFDFC1206237FCC1205D07FB7
:10056D00441205D07F0A12064B1206237FCC1205CA
:10057D00D07FBE1205D01205FA8F1C1205FAEF7F3F
:0B058D0000FEEF251CFDE43EFEAF0564
:010598002240
:10000E00EC4D6011E8497017ED33EC3304600DE4EC
:10001E00FCFFFEFD22E933E8330470F80201BE1244
:10002E00018958046009E4CC248150062850090245
:10003E0001C82840030201C5C0E0EB4A7044B980F4
:10004E0006D0E0FB0201B4EF4E701CBD8008EBFF42
:10005E00EAFEE9FD80EBE98DF0A4FEE5F00200F783
:10006E00E9CDF9EAFEEBFFEF89F0A4FCE5F0CE89CD
:10007E00F0A42EFFE435F0CD89F0A42DFEE435F08A
:10008E008067EF4E7005BD80D780C3EF8BF0A4ACB8
:10009E00F0EE8BF0A42CFCE435F0F8EF8AF0A42CF3
:1000AE00E5F038FCE433CB8DF0A42CFCE5F03BF806
:1000BE00EE8AF0A42CFCE5F038F8E433CF89F0A4F6
:1000CE002CFCE5F038CF3400CE89F0A42FFFE5F0FC
:1000DE003EFEE433C98DF0A42EFEE5F039CD8AF054
:1000EE00A42FFFE5F03EFEE43DFD33D0E0FB5007CC
:1000FE000BBB000F0201C8EC2CFCEF33FFEE33FEFE
:06010E00ED33FD0201A02B
:1001140075F020800E75F010800575F0087D007E66
:10012400007F003392D530D5031201D3EC33401055
:10013400EF33FFEE33FEED33FDEC33FCD5F0ED226F
:0E014400E5F0247EA2D513CC92E7CDCEFF22AB
:10015200EDD2E7CD33EC3392D524814006E4FFFEA5
:10016200FDFC22FCE4CFCECDCC24E0501174FF8004
:10017200EDC3CC13CCCD13CDCE13CECF13CF0470A1
:07018200F030D5DE0201D3CD
:10018900E9D2E7C933E833F892D5EDD2E7CD33ECBC
:0701990033FC5002B2D52235
:1001A000EC30E7100FBF000C0EBE00080DBD0004C0
:1001B0000BEB6014A2D5EB13FCED92E7FD2274FF6C
:1001C000FCFDFEFF22E480F8A2D574FF13FC7D80C5
:0301D000E480EFD9
:1003DC000201E1E493A3F8E493A34003F68001F255
:1003EC0008DFF48029E493A3F85407240CC8C33322
:1003FC00C4540F4420C8834004F456800146F6DFF1
:10040C00E4800B0102040810204080900511E47E6A
:10041C00019360BCA3FF543F30E509541FFEE493E5
:10042C00A360010ECF54C025E060A840B8E493A3AC
:10043C00FAE493A3F8E493A3C8C582C8CAC583CAD7
:10044C00F0A3C8C582C8CAC583CADFE9DEE780BE8F
:01055C00009E
:0E01D300C3E49FFFE49EFEE49DFDE49CFC223D
:00000001FF
