:0300000002008B70
:0C008B00787FE4F6D8FD758108020003C0
:03009700DFFE2267
:10006500C293AF08120076C290D291C292C293AFEA
:010075000882
:10007600AE07AF061EEF600C7FF51200977FF512F4
:05008600009780EE224E
:10000300750802E4FDFCD290C291C292120065C24F
:1000130090C291D292120072C290C291C292D293B4
:10002300AF081200760DBD00010CED64804C70D654
:10003300E4FCFDC3ED9480EC6480948050C5C290D1
:10004300C291C292D293AF08120076C290C291D2EB
:1000530092120065D290C2911200700DBD00010C86
:0200630080D14A
:00000001FF
