:03000000020151A9
:0C015100787FE4F6D8FD75810F020003F2
:1000D4007777772E646F666C79652E6E657400573A
:0A00E400656C636F6D6520746F009A
:0A016900EF1F70011E144E70F72204
:09008A007F3812011F7F057E0082
:10009300AD07AC06ED1DAE0470011C4E60107FF57C
:0F00A3007E001201697FF57E0012016980E6225E
:100141007580FFC2A4D2A5C2A600D2A6E580332243
:10011F00AB0712008FC2A4C2A5D2A68B8000C2A6C5
:01012F0022AD
:0C015D007F0112011F7F057E000200934D
:10013000AB0712008FD2A4C2A5D2A68B8000C2A6A4
:01014000229C
:10010700AE07AA03ED7005EE24808003EE24C0FF3E
:0801170012011FAF02020130CA
:100054008F0C8B0D8A0E890FED7006E50C248080C1
:1000640004E50C24C0FF12011FAB0DAA0EA90F1248
:1000740000EEFF60101201307401250FF50FE43516
:060084000EF50E80E422DF
:1000B20012008A12008A12008A7F3812011F7F08FA
:1000C20012011F7F0112011F7F0612008C7F0C029A
:0200D200011F0C
:100003001200B27508017509FF750A00750BD41249
:10001300015D7BFF7A0079E3E4FD7F03120054ABBB
:1000230009AA0AA90B1200EEFB601D7D01AF08129D
:10003300010705087401250BF50BE4350AF50A7F62
:10004300327E0012009380D77F327E0012009380AD
:01005300B2FA
:1000EE00BB010689828A83E0225002E722BBFE0210
:0900FE00E32289828A83E4932243
:00000001FF
