:0300000002009368
:0C009300787FE4F6D8FD75810F020003B1
:10000300750EFE750F7F750A00750B09850F907FBE
:10001300327E00120075E50FC3134480F50FB4FF61
:1000230005750F7F8015E50B150B7002150AD3E5D7
:100033000B9401E50A6480948050D175080075091A
:1000430009D3E5099401E5086480948040B8850EDE
:10005300907F327E00120075E50E25E04401F50E17
:10006300B4FF05750EFE809EE509150970D31508CA
:0200730080CF3C
:10007500D3EF9400EE940040147D6E7C00ED1D706E
:0D008500011CED4C70F7EF1F70E61E80E3CC
:01009200224B
:00000001FF
